:020000020000FC
:100000000FEF0DBF00E10EBF0FEF07BB0FEF08BBF7
:1000100002D0BBD0E7C1C198C098B998B8980895EC
:10002000B89AB998B898B99A2095B89A07B327FBA7
:1000300001F907BBB89800C0B89A07B326FB01F9CD
:1000400007BBB89800C0B89A07B325FB01F907BBF6
:10005000B89800C0B89A07B324FB01F907BBB89859
:1000600000C0B89A07B323FB01F907BBB89800C0DA
:10007000B89A07B322FB01F907BBB89800C0B89A39
:1000800007B321FB01F907BBB89800C0B89A07B3C2
:1000900020FB01F907BBB89800C02095B89AB99821
:1000A000B89806B301FB0895B89AB998B8980000BB
:1000B00006B301FB27F9B89AB998B898000006B3BF
:1000C00001FB26F9B89AB998B898000006B301FB6D
:1000D00025F9B89AB998B898000006B301FB24F93D
:1000E000B89AB998B898000006B301FB23F9B89AFA
:1000F000B998B898000006B301FB22F9B89AB998EC
:10010000B898000006B301FB21F9B89AB998B898DD
:10011000000006B301FB20F90895B89AB99AB8987F
:100120000895B89AB998B8980895B89AB99AB898AD
:10013000B99808953090008037FCFCCF03D000932D
:100140000080089500D0000008952D3069F12A3014
:10015000A9F10091008007FDFCCFF4DF209300C0DF
:10016000089501E0E7CF02E0E5CF00E1E3CF04E14D
:10017000E1CF08E1DFCF0CE1DDCF0DE0DBCF0CE01C
:10018000D9CF0EE0D7CF0CE0D5CF05B7006C05BFB7
:1001900001E0D0DF06E0CEDF0CE0CCDF08E3CADF11
:1001A0000895022F0068C6CF0091008007FDFCCFA4
:1001B00000740068C7DF0093008008952F9320E447
:1001C000F0DF2F910895FF91EF91EE0FFF1FAF9396
:1001D000BF93C8953196002021F04AF0002D13D02E
:1001E000F8CF3196F695E795BF91AF91099400FA53
:1001F000002DC895A02DBB273196043879F005381D
:1002000081F015C0E6CF2F93FF93EF93E42DF52DEA
:10021000202F0995EF91FF912F9108950C91F3DF15
:10022000D8CF0D91002309F4D4CFEDDFFACF5F933F
:100230004F933F932F939F938F937F936F932D9122
:100240003D914D915D9106FD06C005FD0FC004FD79
:1002500010C003FD19C06AE0702F76957770729513
:1002600080E0902F9295937093951AC062E094E08D
:1002700003C060E194E000C0702F7695777009F4B8
:1002800078E0729580E00CC06AE0C895802D3196C8
:10029000C895702D3196902F95959370939500C0C9
:1002A000943081F0933051F0923021F0332716F4DE
:1002B00027FD3FEF442716F437FD4FEF552716F47F
:1002C00047FD5FEF09D06F917F918F919F912F91A3
:1002D0003F914F915F917DCFCF92BF92AF929F920E
:1002E0008F92BB18AA249924882486F4E894552375
:1002F0006AF46894772309F07051509540953095D1
:1003000020950FEF201B300B400B500B882351F032
:100310005595479537952795B794A79497948794C3
:100320008A95B1F77F9372957F700EE20F9345D057
:100330000C2D30D00F9300272017300740075007AF
:1003400029F07723A1F37A9591F707C0772329F055
:100350007A9519F000E257DFF9CF16F40DE253DF7A
:100360000F910E3211F04FDFFBCF7F917F7077231B
:1003700059F049DF282D392D4A2D5B2D11D00C2D38
:1003800009D041DF7A95D1F78F909F90AF90BF90C1
:10039000CF9008950A3010F4005D0895095A089529
:1003A000CC2400E2889420FDC60EC794579547954B
:1003B000379527950A95B1F70895CC2400E2221FBE
:1003C000331F441F551FCC1CC61A08F4C60E0A95CD
:1003D000B1F7221F331F441F551F5095409530958C
:1003E0002095089520EA1FDE20E01EDE2FE01CDEAF
:1003F00020EF1ADE2AEA18DE2FE016DE96DEB3DEE4
:1004000004E1302E05E33A94F1F73A940A95D9F7CE
:1004100020EA09DE20E008DE2FE006DE21EA00DE29
:1004200043DE7BDEC22E40DE78DED22E3DDE79DE7C
:100430007CDEE22E2C2D6D2D8E2C05EA402E00E068
:10044000502EC1DE7273743D9412209416209408CD
:040450000000D5CF04
:00000001FF
