:020000020000FC
:040000000C94260036
:1000400000C01FB6939595BB1FBE18950FEF0DBF4F
:1000500000E10EBF1FEF14BBA9D14DD16AD101E061
:1000600007BF08E000BF06E003BF0EE806B900E0E6
:1000700007B920E090E078948EC2FF91EF91EE0FE7
:10008000FF1FAF93BF93C8953196002021F04AF02F
:10009000002D17D0F8CF3196F695E795BF91AF9127
:1000A000099400FA002DC895A02DA03610F0B2E0FA
:1000B00001C0BB273196043879F0053881F015C0AE
:1000C000E2CF2F93FF93EF93E42DF52D202F099589
:1000D000EF91FF912F9108950C91F3DFD4CF0D9103
:1000E000002309F4D0CFEDDFFACF5F934F933F9316
:1000F0002F939F938F937F936F932D913D914D916C
:100100005D9106FD06C005FD0FC004FD10C003FD96
:1001100019C06AE0702F76957770729580E0902F05
:100120009295937093951AC062E094E003C060E1E9
:1001300094E000C0702F7695777009F478E072959E
:1001400080E00CC06AE0C895802D3196C895702D6E
:100150003196902F95959370939500C0943081F0CF
:10016000933051F0923021F0332716F427FD3FEF02
:10017000442716F437FD4FEF552716F447FD5FEF80
:1001800009D06F917F918F919F912F913F914F91C6
:100190005F9179CFCF92BF92AF929F928F92BB180F
:1001A000AA249924882486F4E89455236AF4689450
:1001B000772309F0705150954095309520950FEFB9
:1001C000201B300B400B500B882351F05595479561
:1001D00037952795B794A794979487948A95B1F704
:1001E0007F9372957F700EE20F9345D00C2D30D027
:1001F0000F930027201730074007500729F0772377
:10020000A1F37A9591F707C0772329F07A9519F031
:1002100000E257DFF9CF16F40DE253DF0F910E32F3
:1002200011F04FDFFBCF7F917F70772359F049DFCB
:10023000282D392D4A2D5B2D11D00C2D09D041DFF1
:100240007A95D1F78F909F90AF90BF90CF900895FF
:100250000A3010F4005D0895095A0895CC2400E294
:10026000889420FDC60EC7945795479537952795D6
:100270000A95B1F70895CC2400E2221F331F441FD2
:10028000551FCC1CC61A08F4C60E0A95B1F7221FDA
:10029000331F441F551F5095409530952095089564
:1002A0003090008037FCFCCF03D00093008008958D
:1002B00000D0000008952D3069F12A30A9F1009195
:1002C000008007FDFCCFF4DF209300C0089501E01B
:1002D000E7CF02E0E5CF00E1E3CF04E1E1CF08E1C1
:1002E000DFCF0CE1DDCF0DE0DBCF0CE0D9CF0EE0AE
:1002F000D7CF0CE0D5CF05B7006C05BF01E0D0DF4C
:1003000006E0CEDF0CE0CCDF08E3CADF0895022F61
:100310000068C6CF0091008007FDFCCF0074006824
:10032000C7DF0093008008952F9320E4F0DF2F9122
:10033000089502B10F7802B903B1006703B90895B7
:10034000E89411B1107720900001121511F49894DF
:100350000895109300012126989426FC1AC024FECB
:10036000089516FF0BC014FD04C0739515FF72505D
:1003700003C0739515FD72509894089514FD04C040
:10038000639515FF625003C0639515FD6250189484
:10039000089516FD02C06894089508950A95000016
:1003A0000000000000000000C9F70895C598BD983E
:1003B0000895BD9A00EFF2DFBD9803E2EFDF06B3C8
:1003C00005FB0DECEBDF0895BD9A0CE1E7DFBD986E
:1003D00002E0E4DF06B305FB01E0E0DF0895BD9A2B
:1003E00001E0DCDFBD980EE1D9DF06B305FB01E0DB
:1003F000D5DF0895BD9A01E0D1DFBD9807E0CEDFDB
:1004000006B305FB07E1CADF08953F9338E027955F
:1004100010F4E5DF01C0D8DF3A95C9F73F910895A0
:100420003F9338E02795E6DF27F93A95D9F73F91D2
:10043000089509E148E0279508F4302730FB379507
:1004400037F94A95C1F708952F93222339F0C895BB
:10045000002D31960C37D9F72A95C9F7C895202D6C
:100460002C3729F0203019F0319625DFF7CFC895C9
:1004700031960020E1F72F910895FF91EF91EE0F53
:10048000FF1FE2DF3196F695E7950994E199FECFDB
:10049000AEBBBFBB2DBB1FF0E29AE19A0895F89462
:1004A000E29AE19A78940895E199FECFAEBBBFBB82
:1004B000E09A2DB30895022F232FE8DF1196202F05
:1004C000E5DF119608EC302E01E00F933F9200E338
:1004D000302E06E03A94F1F73A940A95D9F73F9016
:1004E0000F913A9491F70A9581F7089562DF2CEC09
:1004F0008CDF24E48ADF08EC302E01E00F933F927A
:1005000000E3302E06E03A94F1F73A940A95D9F7D1
:100510003F900F913A9491F70A9581F74ADF2CECBE
:1005200074DF2EEB72DF7CDF422F7ADF322F242F35
:100530000895369A3699FECF24B135B108EC302EA5
:1005400001E00F933F9200E3302E06E03A94F1F77A
:100550003A940A95D9F73F900F913A9491F70A95FA
:1005600081F70895369A3699FECF24B135B108EC5B
:10057000302E01E00F933F9200E3302E06E03A94D4
:10058000F1F73A940A95D9F73F900F913A9491F781
:100590000A9581F708952F3F09F422E0233009F4EA
:1005A00020E00BE5402E01E0502E67DD0D0D94128A
:1005B000000063DF54656D70657261747572657CEF
:1005C00048756D69646974792020207C4C6967687E
:1005D000742020202020200001E0302E01E00F9325
:1005E0003F9200E3302E06E03A94F1F73A940A95F0
:1005F000D9F73F900F913A9491F70A9581F7A0DED1
:100600000EF0C9CF64DE00E0201739F001E02017BA
:10061000A1F002E0201709F1F5CF68DF0BE5402ECD
:1006200001E0502E2ADD74656D70208B120442208B
:10063000430D000085DE1EF1F0CF4BDE0BE5402EB2
:1006400001E0502E1ADD76612074652070656E64BD
:100650007265000075DE9EF0F0CF6BDF0BE5402E7B
:1006600001E0502E0ADD6C6967687420208B12044B
:1006700042206C6D20200D0063DE0EF0EECF20E0F6
:0406800026DE89CF1A
:00000001FF
