:020000020000FC
:040000000C94350027
:040040000C943100EB
:100062001FB691601FBE18950FEF0DBF00E10EBFC6
:1000720001E007BF08E000BF05E003BF06E806B9DC
:1000820000E007B949D1A5D1E1D190E020E0A0E09C
:10009200B0E0C0E0D1E02CD178947BC2FF91EF9127
:1000A200EE0FFF1FAF93BF93C8953196002021F04A
:1000B2004AF0002D17D0F8CF3196F695E795BF910B
:1000C200AF91099400FA002DC895A02DA03610F02A
:1000D200B2E001C0BB273196043879F0053881F0CF
:1000E20015C0E2CF2F93FF93EF93E42DF52D202F30
:1000F2000995EF91FF912F9108950C91F3DFD4CFE1
:100102000D91002309F4D0CFEDDFFACF5F934F9327
:100112003F932F939F938F937F936F932D913D9155
:100122004D915D9106FD06C005FD0FC004FD10C096
:1001320003FD19C06AE0702F76957770729580E0A2
:10014200902F9295937093951AC062E094E003C049
:1001520060E194E000C0702F7695777009F478E042
:10016200729580E00CC06AE0C895802D3196C895E2
:10017200702D3196902F95959370939500C0943081
:1001820081F0933051F0923021F0332716F427FD9D
:100192003FEF442716F437FD4FEF552716F447FD7E
:1001A2005FEF09D06F917F918F919F912F913F9136
:1001B2004F915F9179CFCF92BF92AF929F928F92E0
:1001C200BB18AA249924882486F4E89455236AF457
:1001D2006894772309F07051509540953095209599
:1001E2000FEF201B300B400B500B882351F055951D
:1001F200479537952795B794A794979487948A95AE
:10020200B1F77F9372957F700EE20F9345D00C2D5C
:1002120030D00F930027201730074007500729F0EE
:100222007723A1F37A9591F707C0772329F07A957E
:1002320019F000E257DFF9CF16F40DE253DF0F9108
:100242000E3211F04FDFFBCF7F917F70772359F091
:1002520049DF282D392D4A2D5B2D11D00C2D09D0C7
:1002620041DF7A95D1F78F909F90AF90BF90CF905A
:1002720008950A3010F4005D0895095A0895CC24B7
:1002820000E2889420FDC60EC7945795479537958E
:1002920027950A95B1F70895CC2400E2221F331F57
:1002A200441F551FCC1CC61A08F4C60E0A95B1F796
:1002B200221F331F441F551F50954095309520959E
:1002C20008953090008037FCFCCF03D0009300806B
:1002D200089500D0000008952D3069F12A30A9F167
:1002E2000091008007FDFCCFF4DF209300C0089549
:1002F20001E0E7CF02E0E5CF00E1E3CF04E1E1CFA7
:1003020008E1DFCF0CE1DDCF0DE0DBCF0CE0D9CF90
:100312000EE0D7CF0CE0D5CF05B7006C05BF01E0EA
:10032200D0DF06E0CEDF0CE0CCDF08E3CADF0895C1
:10033200022F0068C6CF0091008007FDFCCF007439
:100342000068C7DF0093008008952F9320E4F0DF58
:100352002F9108952F93222339F0C895002D3196BD
:100362000C37D9F72A95C9F7C895202D2C3729F0D3
:10037200203019F03196B0DFF7CFC89531960020C2
:10038200E1F72F910895FF91EF91EE0FFF1FE2DF4A
:100392003196F695E7950994E199FECFAEBBBFBBC6
:1003A2006DBB1FF0E29AE19A0895F894E29AE19AFD
:1003B20078940895E199FECFAEBBBFBBE09A6DB3CE
:1003C2000895062F672FE8DF1196602FE5DF11965B
:1003D200089502B10F7802B903B1006703B9089515
:1003E200E89411B1107720900C01121511F4989431
:1003F200089510930C012126989426FC1AC024FE1D
:10040200089516FF0BC014FD04C0239515FF22505A
:1004120003C0239515FD22509894089514FD04C03D
:10042200639515FF625003C0639515FD62501894E1
:10043200089516FD02C06894089508950A95000073
:100442000000000000000000C9F70895C598BD989B
:100452000895BD9A00EFF2DFBD9803E2EFDF06B325
:1004620005FB0DECEBDF0895BD9A0CE1E7DFBD98CB
:1004720002E0E4DF06B305FB01E0E0DF0895BD9A88
:1004820001E0DCDFBD980EE1D9DF06B305FB01E038
:10049200D5DF0895BD9A01E0D1DFBD9807E0CEDF38
:1004A20006B305FB07E1CADF08957F9378E06795FD
:1004B20010F4E5DF01C0D8DF7A95C9F77F9108957E
:1004C2007F9378E06795E6DF67F97A95D9F77F91B0
:1004D200089509E188E0679508F4702770FB779525
:1004E20077F98A95C1F70895B4DF6CECDEDF64E436
:1004F200DCDF0AE0302E01E00F933F9200E3302E62
:1005020006E03A94F1F73A940A95D9F73F900F91A1
:100512003A9491F70A9581F79CDF6CECC6DF6EEB9B
:10052200C4DFCEDF862FCCDF762F682F0895369A70
:100532003699FECF64B175B104E6302E01E00F9317
:100542003F9200E3302E06E03A94F1F73A940A958E
:10055200D9F73F900F913A9491F70A9581F7089550
:10056200369A3699FECF64B175B104E6302E01E0B9
:100572000F933F9200E3302E06E03A94F1F73A945B
:100582000A95D9F73F900F913A9491F70A9581F71E
:1005920008952F3F09F420E0233009F422E00DE60C
:1005A200402E01E0502E7ADD0D0D94120000EBDE9C
:1005B20054656D7065726174757265207C48756DE5
:1005C2006964697479202020207C4C6967687420F2
:1005D200202020202020000001E0302E01E00F9397
:1005E2003F9200E3302E06E03A94F1F73A940A95EE
:1005F200D9F73F900F913A9491F70A9581F7F0DE7F
:100602001EF090FD40D0C5CF73DE203029F021309E
:10061200A1F0223019F1F8CF67DF6CDE0DE6402E33
:1006220001E0502E3BDD74656D7020208B16044274
:1006320020430D00D5DE26F1EFCF92DF5BDE0DE623
:10064200402E01E0502E2ADD68756D2020208B1689
:10065200044220250D00C4DE9EF0EFCF68DF4ADEA3
:100662000DE6402E01E0502E19DD6C69676874209A
:100672008B160442206C6D0D0000B2DE0EF0EECF40
:1006820037DE38DE86CF30DF7993699369DF79937D
:1006920069934DDF799369939E7FCC3009F401D041
:1006A2000895C0E02990722D2990622D8ADECC3007
:0606B200C9F7C0E0089545
:00000001FF
