:020000020000FC
:100000000FEF0DBF00E10EBF02E002B9199A28E020
:100010002DC002E8302E01E03A94F1F73A940A95A7
:10002000D9F7089508EC302E01E03A94F1F73A94AC
:100030000A95D9F708951998ECDF0894279508F4E4
:10004000199A08F01998E5DF88942223B9F7199ACC
:10005000E0DF08950899FECFE5DF20E808990894CD
:10006000089B88942795D5DFC8F7089520E0E3DF43
:1000700008EE302E04E00F933F9200E3302E06E0AE
:100080003A94F1F73A940A95D9F73F900F913A9440
:0800900091F70A9581F7EACF10
:00000001FF
